S019000053696D706C652043616C63756C61746F722E7372656377
S11300000C9491000C94AE000C94AE000C94AE00D1
S11300100C94AE000C94AE000C94AE000C94AE00A4
S11300200C94AE000C94AE000C94AE000C94AE0094
S11300300C94AE000C94AE000C94AE000C94AE0084
S11300400C94AE000C94AE000C94AE000C94AE0074
S11300500C94AE0020022002D3022002D30220021C
S11300609E029E029E029E029E029E029E029E028C
S11300709E029E02D302D302D3026902D302D302A8
S1130080D302D302D302D302D302D302D302D302C4
S1130090D302D302D302D302D302D302D302D302B4
S11300A0D302D302D302D302D302D302D302D302A4
S11300B0D302D302D302D302D302D302D302D30294
S11300C0D302D302D302D10208000000BE92244915
S11300D0123EABAAAA2ABECDCCCC4C3E0000008076
S11300E0BEABAAAAAA3E00000000BF000000803FE9
S11300F00000000000084178D3BB4387D1133D19A9
S11301000E3CC3BD4282AD2B3E68EC8276BED98FD5
S1130110E1A93E4C80EFFFBE01C4FF7F3F00000019
S1130120000011241FBECFE5D8E0DEBFCDBF10E034
S1130130A0E6B0E0E4E9F9E102C005900D92AE3A20
S1130140B107D9F720E0AEEAB0E001C01D92A83CA7
S1130150B207E1F70E94D1050C94C80C0C9400007E
S11301601616170618061906CCF40E949D070E945D
S1130170810820E030E040E85FE30E9400070E942D
S1130180D8079B01AC0160E070E080E891E40E9434
S1130190FF060E946C076093B4000895992334F518
S11301A090958095709561957F4F8F4F9F4F0E94DA
S11301B09D070E94810820E030E040E85FE30E9450
S11301C000070E94D80720E030E040E85FE30E9487
S11301D000079B01AC0160E070E080E891E40E94BC
S11301E0FF060E946C076093B40008958FE080932B
S11301F0B40008958F929F92AF92BF92CF92DF92F4
S1130200EF92FF920F931F93CF93DF938091B900E6
S11302108B3259F020F48A3209F461C0EEC08D3279
S113022091F18F3209F483C0E8C04091C20050912B
S1130230C3006091C4007091C5008091BE0090918C
S1130240BF00A091C000B091C1008A019B01080FBA
S1130250191F2A1F3B1FC901B8010093B500109351
S1130260B6002093B7003093B8000E94B0006091AC
S1130270B40082E00E9413058091B5009091B6000D
S11302800E949A05BAC08091C2009091C300A091C7
S1130290C400B091C500C090BE00D090BF00E090F3
S11302A0C000F090C100BC01CD016C197D098E091C
S11302B09F096093B5007093B6008093B700909344
S11302C0B8000E94B0006091B40082E00E9413055F
S11302D08091B5009091B6000E949A058EC020913D
S11302E0C2003091C3004091C4005091C500609198
S11302F0BE007091BF008091C0009091C1000E9427
S11303006D096093B5007093B6008093B700909325
S1130310B8000E94B0006091B40082E00E9413050E
S11303208091B5009091B6000E949A0566C0C09075
S1130330BE00D090BF00E090C000F090C100C11496
S1130340D104E104F104B9F487EA91E60197F1F7E5
S113035000C000000E947B0584E690E00E948805AE
S113036060E082E00E94130581E790E00E94880526
S11303700E94010342C08090C2009090C300A090EC
S1130380C400B090C500C501B401A70196010E9444
S11303907D09C22F032F142FD52F2093B50030933E
S11303A0B6004093B7005093B800A4E6B0E0A501AE
S11303B094010E94A209A70196010E947D09F22ED0
S11303C094E6C99FF01811246C2F702F812F9D2F54
S11303D00E94B0006091B400635082E00E94130553
S11303E08091B5009091B6000E949A058EE20E9419
S11303F06B058F2D90E00E949A05DF91CF911F919C
S11304000F91FF90EF90DF90CF90BF90AF909F90AF
S11304108F900895CF92DF92EF92FF92CF93C3C053
S11304200E94B003C82F8093AF0090E0FC01BA97FC
S1130430EA33F10508F0B7C0E65DFF4F0C949C0960
S11304408D3259F48091AE00811107C08C2F0E9427
S11304506B0581E08093AE00A6C0C093B900809183
S1130460BA009091BB00A091BC00B091BD008093F4
S1130470C2009093C300A093C400B093C50010922F
S1130480BA001092BB001092BC001092BD008C2FD9
S11304900E946B058091AE00882309F484C080918A
S11304A0C2009091C300A091C400B091C500B09562
S11304B0A095909581959F4FAF4FBF4F8093C200F9
S11304C09093C300A093C400B093C5001092AE00F3
S11304D06AC08091BA009091BB00A091BC00B09119
S11304E0BD008093BE009093BF00A093C000B09362
S11304F0C1008C2F0E946B058091AE008823C9F047
S11305008091BE009091BF00A091C000B091C10045
S1130510B095A095909581959F4FAF4FBF4F809315
S1130520BE009093BF00A093C000B093C10010928E
S1130530AE000E94FA000E94010335C0C82ED12CDF
S113054080E3C81AD1080D2C000CEE08FF08C092F5
S1130550B000D092B100E092B200F092B3002091CA
S1130560BA003091BB004091BC005091BD00609135
S113057060007091610080916200909163000E941C
S11305806D09C60ED71EE81EF91EC092BA00D0929D
S1130590BB00E092BC00F092BD008C2F0E946B0562
S11305A002C00E9401038091AF008D3309F038CF5F
S11305B0CF91FF90EF90DF90CF9008950E945F035A
S11305C004C00E94B0038093C6008091C6008336A5
S11305D0C1F70E94940464E081E00E94130582E85C
S11305E090E00E9488052FE38DE093E02150804045
S11305F09040E1F700C000000E947B050E940A02BF
S113060008951092C2001092C3001092C400109278
S1130610C5001092BE001092BF001092C00010924C
S1130620C1001092BA001092BB001092BC0010924C
S1130630BD001092B9001092B0001092B100109257
S1130640B2001092B3002CC00E94B0038093AF009C
S11306508B3231F08D3221F08A3211F08F3201F574
S11306608091B5009091B600A091B700B091B80008
S11306708093C2009093C300A093C400B093C500BC
S11306800E947B058091C2009091C3000E949A054C
S11306908091AF008093B9000E946B050E940A020A
S11306A08091AF00833681F60E947B051092B500DD
S11306B01092B6001092B7001092B800089541E06D
S11306C060E082E00E94D40541E061E082E00E94A3
S11306D0D40541E062E082E00E94D40541E063E099
S11306E082E00E94D40541E060E082E00E94460678
S11306F041E061E082E00E94460641E062E082E07F
S11307000E94460641E063E082E00E94460640E023
S113071064E082E00E94D40540E065E082E00E944B
S1130720D40540E066E082E00E94D40540E067E042
S113073082E00E94D40541E064E082E00E94460623
S113074041E065E082E00E94460641E066E082E026
S11307500E94460641E067E082E00E944606089552
S1130760CF92DF92EF92FF920F931F93CF93DF9379
S11307701F92CDB7DEB700E04EC0C02ED12CD601FB
S1130780AA55BF4FF601EE55FF4F40E06C918081B2
S11307900E94460610E031C0E12EF12CD701A2568A
S11307A0BF4FF701E656FF4FAE014F5F5F4F6C91AD
S11307B080810E94B806898181111EC0C701880FFB
S11307C0991F880F991F86579F4FFC01EC0DFD1D43
S11307D010810DC0AE014F5F5F4FF701E256FF4F2E
S11307E06081F701E656FF4F80810E94B806998127
S11307F0992381F3812F13C01F5F143068F2D6014F
S1130800AA55BF4FF601EE55FF4F41E06C91808130
S11308100E9446060F5F043008F4AFCF8FEF0F90AD
S1130820DF91CF911F910F91FF90EF90DF90CF90C8
S1130830089541E062E080E00E94460683EC99E07E
S11308400197F1F700C0000040E062E080E00E9400
S113085046060895CF93C82F40E061E080E00E94EF
S11308604606811151C040E062E00E9446068111B3
S11308704BC04C2F441F4427441F67E081E00E9473
S11308804606811141C0C6FB442740F966E081E079
S11308900E944606811138C0C5FB442740F965E033
S11308A081E00E94460681112FC0C4FB442740F911
S11308B064E081E00E944606811126C0C3FB442700
S11308C040F963E081E00E94460681111DC0C2FB2D
S11308D0442740F962E081E00E944606811114C079
S11308E0C1FB442740F961E081E00E944606811182
S11308F00BC04C2F417060E081E00E9446068111DC
S113090003C00E94190480E0CF910895CF93C82FAB
S113091040E060E080E00E944606811103C08C2F15
S11309200E942A04CF91089541E060E080E00E9493
S1130930D405811177C041E061E00E94D4058111A2
S113094071C041E062E00E94D40581116BC041E0B6
S113095067E081E00E94D405811164C041E066E053
S113096081E00E94D40581115DC041E065E081E031
S11309700E94D405811156C041E064E081E00E94E8
S1130980D40581114FC08DE292E20197F1F700C0C6
S1130990000041E063E081E00E94D405811142C07F
S11309A041E062E081E00E94D40581113BC041E056
S11309B061E081E00E94D405811134C041E060E02F
S11309C081E00E94D40581112DC088E30E94860431
S11309D0811128C089EF90E00197F1F700C0000071
S11309E08FE00E94860481111DC089EF90E0019779
S11309F0F1F700C0000081E00E948604811112C05A
S1130A0083EF91E00197F1F700C0000086E00E94B7
S1130A108604811107C089EF90E00197F1F700C0C7
S1130A20000080E00895CF93DF93603148F5C62F2E
S1130A30813089F4D0E8D60F40E060E080E00E9485
S1130A404606811103C08D2F0E942A0481111BC008
S1130A50C093C70018C08230A9F4D0ECD60F40E090
S1130A6060E080E00E944606811103C08D2F0E9441
S1130A702A04811108C060E16C0F6093C70003C0B1
S1130A8080E001C080E0DF91CF9108958091C7009C
S1130A90803151F460E082E00E9413058091C70028
S1130AA08F5F8093C7000895803289F440E060E04E
S1130AB080E00E944606811103C081E00E942A045E
S1130AC060E081E00E9413051092C70008958F5FD3
S1130AD08093C7000895CF93C82F0E94460541E034
S1130AE060E080E00E944606811103C08C2F0E94C2
S1130AF02A04CF91089540E060E080E00E94460619
S1130B00811103C081E00E942A041092C700089555
S1130B10CF93DF93EC01892B39F482E008C00E9463
S1130B206B05811104C0219688818111F8CFDF9172
S1130B30CF9108951F93CF93DF93CDB7DEB760971E
S1130B400FB6F894DEBF0FBECDBF9F938F938AEA92
S1130B5090E09F938F93CE0101969F938F930E9471
S1130B60DE090F900F900F900F900F900F9010E0F0
S1130B7081E004C0892F0E946B051F5FE1E0F0E073
S1130B80EC0FFD1FE10FF11D90819111F3CF6096E1
S1130B900FB6F894DEBF0FBECDBFDF91CF911F918A
S1130BA008950E94DE02FFCF843008F067C06830E9
S1130BB008F066C0423008F065C08130E9F030F0DA
S1130BC0823081F1833009F443C05EC081E090E05B
S1130BD0062E02C0880F991F0A94E2F780952AB363
S1130BE02823842F90E002C0880F991F6A95E2F7AA
S1130BF0822B8ABB80E0089521E030E0062E02C0FB
S1130C00220F331F0A94E2F7209587B32823842FF9
S1130C1090E002C0880F991F6A95E2F7822B87BB88
S1130C2080E0089521E030E0062E02C0220F331F39
S1130C300A94E2F7209584B32823842F90E002C01D
S1130C40880F991F6A95E2F7822B84BB80E0089590
S1130C5021E030E0062E02C0220F331F0A94E2F78F
S1130C60209581B32823842F90E002C0880F991F18
S1130C706A95E2F7822B81BB80E0089583E00895B2
S1130C8083E0089583E0089580E00895843008F0B7
S1130C9067C0683008F066C0423008F065C0813033
S1130CA0E9F030F0823081F1833009F443C05EC052
S1130CB081E090E0062E02C0880F991F0A94E2F7A3
S1130CC080952BB32823842F90E002C0880F991FAE
S1130CD06A95E2F7822B8BBB80E0089521E030E037
S1130CE0062E02C0220F331F0A94E2F7209588B320
S1130CF02823842F90E002C0880F991F6A95E2F799
S1130D00822B88BB80E0089521E030E0062E02C0EB
S1130D10220F331F0A94E2F7209585B32823842FEA
S1130D2090E002C0880F991F6A95E2F7822B85BB79
S1130D3080E0089521E030E0062E02C0220F331F28
S1130D400A94E2F7209582B32823842F90E002C00E
S1130D50880F991F6A95E2F7822B82BB80E0089581
S1130D6083E0089583E0089583E0089580E0089582
S1130D7041155105E1F18430E0F56830E0F581304A
S1130D8091F028F08230D9F0833029F136C089B34C
S1130D9090E002C0959587956A95E2F78170FA0113
S1130DA0808380E0089586B390E002C0959587958E
S1130DB06A95E2F78170FA01808380E0089583B335
S1130DC090E002C0959587956A95E2F78170FA01E3
S1130DD0808380E0089580B390E002C09595879564
S1130DE06A95E2F78170FA01808380E0089582E0D9
S1130DF0089580E0089580E0089580E008955058B3
S1130E00BB27AA270E9417070C942F080E942108C9
S1130E1038F00E94280820F039F49F3F19F426F492
S1130E200C941E080EF4E095E7FB0C94EF07E92FF1
S1130E300E94400858F3BA1762077307840795079E
S1130E4020F079F4A6F50C947A080EF4E0950B2EB4
S1130E50BA2FA02D0B01B90190010C01CA01A00108
S1130E601124FF27591B99F0593F50F4503E68F163
S1130E701A16F040A22F232F342F4427585FF3CFA4
S1130E80469537952795A795F0405395C9F77EF475
S1130E901F16BA0B620B730B840BBAF09150A1F0BE
S1130EA0FF0FBB1F661F771F881FC2F70EC0BA0F44
S1130EB0621F731F841F48F4879577956795B795CC
S1130EC0F7959E3F08F0B0CF9395880F08F09927C7
S1130ED0EE0F9795879508950E94480888F09F57CC
S1130EE098F0B92F9927B751B0F0E1F0660F771F4A
S1130EF0881F991F1AF0BA95C9F714C0B13091F040
S1130F000E947A08B1E008950C947A08672F782F2C
S1130F108827B85F39F0B93FCCF386957795679504
S1130F20B395D9F73EF490958095709561957F4F70
S1130F308F4F9F4F0895E89409C097FB3EF4909516
S1130F408095709561957F4F8F4F9F4F9923A9F09E
S1130F50F92F96E9BB279395F6958795779567952D
S1130F60B795F111F8CFFAF4BB0F11F460FF1BC071
S1130F706F5F7F4F8F4F9F4F16C0882311F096E904
S1130F8011C0772321F09EE8872F762F05C06623B2
S1130F9071F096E8862F70E060E02AF09A95660F6B
S1130FA0771F881FDAF7880F9695879597F9089524
S1130FB00E94620890F09F3748F4911116F00C9447
S1130FC07B0860E070E080E89FEB089526F41B1630
S1130FD0611D711D811D0C94F5070C94100897F97F
S1130FE09F6780E870E060E00895882371F47723B8
S1130FF021F09850872B762F07C0662311F4992788
S11310000DC09051862B70E060E02AF09A95660F2F
S1131010771F881FDAF7880F9695879597F90895B3
S11310209F3F31F0915020F4879577956795B79558
S1131030880F911D9695879597F908959FEF80ECF9
S1131040089500240A94161617061806090608952A
S113105000240A9412161306140605060895092E90
S11310600394000C11F4882352F0BB0F40F4BF2BFF
S113107011F460FF04C06F5F7F4F8F4F9F4F08953F
S113108057FD9058440F551F59F05F3F71F0479535
S1131090880F97FB991F61F09F3F79F0879508951A
S11310A0121613061406551FF2CF4695F1DF08C039
S11310B0161617061806991FF1CF86957105610556
S11310C0089408950E944808A0F0BEE7B91788F470
S11310D0BB279F3860F41616B11D672F782F882719
S11310E0985FF7CF869577956795B11D9395963957
S11310F0C8F30895E894BB2766277727CB0197F9AF
S113110008950E94910829ED3BE54EED5EE30C94B1
S1131110D90816F00C9410080C941E0868940C94CA
S1131120EF070E944808A8F39923C1F3AEF3DF93B5
S1131130CF931F930F93FF92C92FDD2788232AF0A3
S11311402197660F771F881FDAF720E030E040E828
S11311505FEB9FE3883920F0803E38F021968F774B
S11311600E940007E8ECF0E004C00E940007E5EFED
S1131170F0E00E9446098B01BE01EC01FB2E6F5783
S113118071097595771F880B990B0E949D0728E1BB
S113119032E741E35FE30E94EC08AF2D9801AE0112
S11311A0FF900F911F91CF91DF910E9417070C942C
S11311B02F080E94EC080C942F080E94210838F094
S11311C00E94280820F0952311F00C94EF070C944A
S11311D01E0811240C947B080E94400870F3959F0C
S11311E0C1F3950F50E0551F629FF001729FBB271A
S11311F0F00DB11D639FAA27F00DB11DAA1F649FB6
S11312006627B00DA11D661F829F2227B00DA11D68
S1131210621F739FB00DA11D621F839FA00D611DEE
S1131220221F749F3327A00D611D231F849F600D0F
S1131230211D822F762F6A2F11249F5750409AF038
S1131240F1F088234AF0EE0FFF1FBB1F661F771FC4
S1131250881F91505040A9F79E3F510580F00C948F
S1131260EF070C947B085F3FE4F3983ED4F3869534
S113127077956795B795F795E7959F5FC1F7FE2B2F
S1131280880F911D9695879597F90895DF93CF93CD
S11312901F930F93FF92EF92DF927B018C0168946E
S11312A006C0DA2EEF010E94EC08FE01E894A59135
S11312B02591359145915591A6F3EF010E941707A9
S11312C0FE019701A801DA9469F7DF90EF90FF908F
S11312D00F911F91CF91DF910895DB018F939F931D
S11312E00E94A209BF91AF91A29F800D911DA39F5F
S11312F0900DB29F900D11240895052E97FB1EF4B6
S113130000940E94940957FD07D00E94AD0907FC80
S113131003D04EF40C949409509540953095219542
S11313203F4F4F4F5F4F089590958095709561950D
S11313307F4F8F4F9F4F0895EE0FFF1F0590F4913D
S1131340E02D09940E94CF09A59F900DB49F900DA4
S1131350A49F800D911D11240895A1E21A2EAA1BA9
S1131360BB1BFD010DC0AA1FBB1FEE1FFF1FA21751
S1131370B307E407F50720F0A21BB30BE40BF50B4E
S1131380661F771F881F991F1A9469F760957095D7
S1131390809590959B01AC01BD01CF010895A29F5A
S11313A0B001B39FC001A39F700D811D1124911D35
S11313B0B29F700D811D1124911D0895AEE0B0E01F
S11313C0E4EEF9E00C949F0C0D891E8986E08C8371
S11313D01A8309838FEF9FE79E838D83AE01475E57
S11313E05F4F6F89788DCE0101960E94000AEF81CC
S11313F0F885E00FF11F10822E96E4E00C94BB0CEC
S1131400ABE0B0E0E6E0FAE00C94910C6C017B01F7
S11314108A01FC0117821682838181FFCCC1CE012F
S113142001963C01F6019381F70193FD859193FFA9
S113143081917F01882309F4BAC1853239F493FD7F
S1131440859193FF81917F01853229F4B60190E063
S11314500E94F70BE7CF912C212C312CFFE1F315DF
S1131460D8F08B3279F038F4803279F08332A1F4F9
S1131470232D20611DC08D3261F0803369F4232D4A
S1131480216016C0832D8260382EE32DE4603E2E49
S11314902AC0F32DF8601DC037FC2DC020ED280FA5
S11314A02A3040F08E32B9F436FC81C1232D2064F9
S11314B0322E19C036FE06C08AE0989E200D1124F3
S11314C0922E11C0EAE02E9E200D1124222EF32D1F
S11314D0F0623F2E08C08C3621F4832D8068382EAC
S11314E002C0883641F4F70193FD859193FF819101
S11314F07F018111B3CF982F9F7D9554933028F4A9
S11315000C5F1F4F9FE399830DC0833631F08337FF
S113151071F0833509F059C021C0F80180818983B5
S11315200E5F1F4F88248394912C530113C028010C
S1131530F2E04F0E511CF801A080B18036FE03C0CA
S1131540692D70E002C06FEF7FEFC5010E94EC0BC4
S11315504C018201F32DFF773F2E16C0280122E0B3
S1131560420E511CF801A080B18036FE03C0692DE3
S113157070E002C06FEF7FEFC5010E94E10B4C01E8
S1131580F32DF0683F2E820133FC1BC0822D90E0C6
S113159088169906B0F4B60180E290E00E94F70B39
S11315A02A94F4CFF50137FC859137FE81915F01D0
S11315B0B60190E00E94F70B21102A9421E0821AD0
S11315C091088114910471F7E8C0843611F08936CA
S11315D041F5F80137FE07C06081718182819381F2
S11315E00C5F1F4F08C060817181072E000C880BAF
S11315F0990B0E5F1F4FF32DFF763F2E97FF09C007
S113160090958095709561957F4F8F4F9F4FF068AF
S11316103F2E2AE030E0A3010E94330C882E861866
S113162045C0853731F4232D2F7EB22E2AE030E0D9
S113163025C0932D997FB92E8F36C1F018F48835C3
S113164079F0B5C0803719F0883721F0B0C0E92FA0
S1131650E061BE2EB4FE0DC0FB2DF460BF2E09C0A8
S113166034FE0AC0292F2660B22E06C028E030E0DE
S113167005C020E130E002C020E132E0F801B7FE0D
S113168007C060817181828193810C5F1F4F06C006
S11316906081718180E090E00E5F1F4FA3010E9482
S11316A0330C882E8618FB2DFF773F2E36FE0DC097
S11316B0232D2E7FA22E891458F434FE0BC032FC45
S11316C009C0832D8E7EA82E05C0B82CA32C03C080
S11316D0B82C01C0B92CA4FE0FC0FE01E80DF11D09
S11316E08081803321F49A2D997EA92E09C0A2FE0F
S11316F006C0B394B39404C08A2D867809F0B394D9
S1131700A3FC11C0A0FE06C0B21488F4280C922CCD
S11317109B180EC0B21460F4B60180E290E00E94FF
S1131720F70BB394F7CFB21418F42B1802C0982C0B
S1131730212CA4FE10C0B60180E390E00E94F70BB8
S1131740A2FE17C0A1FC03C088E790E002C088E5B0
S113175090E0B6010CC08A2D867859F0A1FE02C033
S11317608BE201C080E2A7FC8DE2B60190E00E940A
S1131770F70B891438F4B60180E390E00E94F70B6C
S11317809A94F7CF8A94F301E80DF11D8081B60194
S113179090E00E94F70B8110F5CF222009F442CE8D
S11317A0B60180E290E00E94F70B2A94F6CFF6018E
S11317B08681978102C08FEF9FEF2B96E2E10C9414
S11317C0AD0CFC010590615070400110D8F7809574
S11317D090958E0F9F1F0895FC01615070400190F9
S11317E00110D8F7809590958E0F9F1F08950F9341
S11317F01F93CF93DF93FB01238121FD03C08FEF60
S11318009FEF2CC022FF16C0468157812481358169
S11318104217530744F4A081B1819D012F5F3F4FCC
S1131820318320838C93268137812F5F3F4F378309
S1131830268314C08B01EC01FB010084F185E02DAB
S11318400995892BE1F6D80116968D919C911797ED
S1131850019617969C938E931697CE01DF91CF91A4
S11318601F910F910895FA01AA27283051F12031D0
S113187081F1E8946F936E7F6E5F7F4F8F4F9F4F20
S1131880AF4FB1E03ED0B4E03CD0670F781F891F62
S11318909A1FA11D680F791F8A1F911DA11D6A0F30
S11318A0711D811D911DA11D20D009F468943F91E3
S11318B02AE0269F11243019305D3193DEF6CF01E2
S11318C00895462F4770405D4193B3E00FD0C9F7A8
S11318D0F6CF462F4F70405D4A3318F0495D31FD15
S11318E04052419302D0A9F7EACFB4E0A695979568
S11318F0879577956795BA95C9F70097610571053E
S113190008959B01AC010A2E069457954795379587
S11319102795BA95C9F7620F731F841F951FA01DE1
S113192008952F923F924F925F926F927F928F927F
S11319309F92AF92BF92CF92DF92EF92FF920F935A
S11319401F93CF93DF93CDB7DEB7CA1BDB0B0FB664
S1131950F894DEBF0FBECDBF09942A883988488821
S11319605F846E847D848C849B84AA84B984C884B7
S1131970DF80EE80FD800C811B81AA81B981CE0FAE
S1131980D11D0FB6F894DEBF0FBECDBFED01089593
S1071990F894FFCFF5
S11319940A0000004D415448204552524F5221211F
S11319A4005365636F6E64206F706572616E6420AA
S11319B4300057656C636F6D65003738392F3435E3
S11319C4362A3132332D63303D2B020202020405E0
S11119D406070202020200010203256400005D
S9030000FC
