S019000053696D706C652043616C63756C61746F722E7372656377
S11300000C9491000C94AE000C94AE000C94AE00D1
S11300100C94AE000C94AE000C94AE000C94AE00A4
S11300200C94AE000C94AE000C94AE000C94AE0094
S11300300C94AE000C94AE000C94AE000C94AE0084
S11300400C94AE000C94AE000C94AE000C94AE0074
S11300500C94AE00200220028B0220028B022002AC
S113006056025602560256025602560256025602CC
S1130070560256028B028B028B023E028B028B02CB
S11300808B028B028B028B028B028B028B028B0204
S11300908B028B028B028B028B028B028B028B02F4
S11300A08B028B028B028B028B028B028B028B02E4
S11300B08B028B028B028B028B028B028B028B02D4
S11300C08B028B028B02890208000000BE92244935
S11300D0123EABAAAA2ABECDCCCC4C3E0000008076
S11300E0BEABAAAAAA3E00000000BF000000803FE9
S11300F00000000000084178D3BB4387D1133D19A9
S11301000E3CC3BD4282AD2B3E68EC8276BED98FD5
S1130110E1A93E4C80EFFFBE01C4FF7F3F00000019
S1130120000011241FBECFE5D8E0DEBFCDBF10E034
S1130130A0E6B0E0E4E0F9E102C005900D92AE3A29
S1130140B107D9F720E0AEEAB0E001C01D92A73CA8
S1130150B207E1F70E9489050C94800C0C9400000E
S11301601616170618061906CCF40E9455070E94A5
S1130170390820E030E040E85FE30E94B8060E94BE
S113018090079B01AC0160E070E080E891E40E947C
S1130190B7060E9424076093B3000895992334F5A9
S11301A090958095709561957F4F8F4F9F4F0E94DA
S11301B055070E94390820E030E040E85FE30E94E0
S11301C0B8060E94900720E030E040E85FE30E9418
S11301D0B8069B01AC0160E070E080E891E40E9405
S11301E0B7060E9424076093B30008958FE08093BC
S11301F0B30008958F929F92AF92BF92CF92DF92F5
S1130200EF92FF920F931F93CF93DF938091B800E7
S11302108B3259F020F48A3209F461C0EEC08D3279
S113022091F18F3209F483C0E8C04091C10050912C
S1130230C2006091C3007091C4008091BD00909190
S1130240BE00A091BF00B091C0008A019B01080FBD
S1130250191F2A1F3B1FC901B8010093B400109352
S1130260B5002093B6003093B7000E94B0006091AF
S1130270B30082E00E94CB048091B4009091B50059
S11302800E945205BAC08091C1009091C200A09111
S1130290C300B091C400C090BD00D090BE00E090F7
S11302A0BF00F090C000BC01CD016C197D098E091E
S11302B09F096093B4007093B5008093B600909347
S11302C0B7000E94B0006091B30082E00E94CB04AA
S11302D08091B4009091B5000E9452058EC0209187
S11302E0C1003091C2004091C3005091C40060919C
S11302F0BD007091BE008091BF009091C0000E942B
S113030025096093B4007093B5008093B600909370
S1130310B7000E94B0006091B30082E00E94CB0459
S11303208091B4009091B5000E94520566C0C090BF
S1130330BD00D090BE00E090BF00F090C000C1149A
S1130340D104E104F104B9F487EA91E60197F1F7E5
S113035000C000000E94330584E690E00E9440053E
S113036060E082E00E94CB0481E790E00E944005B7
S11303700E94B90242C08090C1009090C200A09037
S1130380C300B090C400C501B401A70196010E9446
S11303903509C22F032F142FD52F2093B400309387
S11303A0B5004093B6005093B700A4E6B0E0A501B1
S11303B094010E945A09A70196010E943509F22E60
S11303C094E6C99FF01811246C2F702F812F9D2F54
S11303D00E94B0006091B300635082E00E94CB049D
S11303E08091B4009091B5000E9452058EE20E9463
S11303F023058F2D90E00E945205DF91CF911F912C
S11304000F91FF90EF90DF90CF90BF90AF909F90AF
S11304108F900895CF92DF92EF92FF92CF937BC09B
S11304200E946803C82F8093AE0090E0FC01BA9745
S1130430EA33F10508F06FC0E65DFF4F0C945409F0
S11304408093B8008091B9009091BA00A091BB004C
S1130450B091BC008093C1009093C200A093C300EC
S1130460B093C4001092B9001092BA001092BB006D
S11304701092BC008C2F0E9423054DC08091B900BE
S11304809091BA00A091BB00B091BC008093BD00D4
S11304909093BE00A093BF00B093C0008C2F0E9425
S11304A023050E94FA000E94B90235C0C82ED12C3F
S11304B080E3C81AD1080D2C000CEE08FF08C09286
S11304C0AF00D092B000E092B100F092B20020915F
S11304D0B9003091BA004091BB005091BC006091CA
S11304E060007091610080916200909163000E94AD
S11304F02509C60ED71EE81EF91EC092B900D09277
S1130500BA00E092BB00F092BC008C2F0E9423053D
S113051002C00E94B9028091AE008D3309F080CFF1
S1130520CF91FF90EF90DF90CF9008950E94170332
S113053004C00E9468038093C5008091C50083367F
S1130540C1F70E944C0464E081E00E94CB0482E87D
S113055090E00E9440052FE38DE093E0215080401D
S11305609040E1F700C000000E9433050E940A0297
S113057008951092C1001092C2001092C30010920C
S1130580C4001092BD001092BE001092BF001092E1
S1130590C0001092B9001092BA001092BB001092E1
S11305A0BC001092B8001092AF001092B0001092EC
S11305B0B1001092B2002CC00E9468038093AE0078
S11305C08B3231F08D3221F08A3211F08F3201F505
S11305D08091B4009091B500A091B600B091B7009D
S11305E08093C1009093C200A093C300B093C40051
S11305F00E9433058091C1009091C2000E9452056F
S11306008091AE008093B8000E9423050E940A02E4
S11306108091AE00833681F60E9433051092B400B7
S11306201092B5001092B6001092B700089541E000
S113063060E082E00E948C0541E061E082E00E947B
S11306408C0541E062E082E00E948C0541E063E0B9
S113065082E00E948C0541E060E082E00E94FE0599
S113066041E061E082E00E94FE0541E062E082E058
S11306700E94FE0541E063E082E00E94FE0540E046
S113068064E082E00E948C0540E065E082E00E9424
S11306908C0540E066E082E00E948C0540E067E063
S11306A082E00E948C0541E064E082E00E94FE0545
S11306B041E065E082E00E94FE0541E066E082E000
S11306C00E94FE0541E067E082E00E94FE05089575
S11306D0CF92DF92EF92FF920F931F93CF93DF930A
S11306E01F92CDB7DEB700E04EC0C02ED12CD6018C
S11306F0AA55BF4FF601EE55FF4F40E06C91808143
S11307000E94FE0510E031C0E12EF12CD701A25663
S1130710BF4FF701E656FF4FAE014F5F5F4F6C913D
S113072080810E947006898181111EC0C701880FD3
S1130730991F880F991F86579F4FFC01EC0DFD1DD3
S113074010810DC0AE014F5F5F4FF701E256FF4FBE
S11307506081F701E656FF4F80810E9470069981FF
S1130760992381F3812F13C01F5F143068F2D601DF
S1130770AA55BF4FF601EE55FF4F41E06C918081C1
S11307800E94FE050F5F043008F4AFCF8FEF0F9087
S1130790DF91CF911F910F91FF90EF90DF90CF9059
S11307A0089541E062E080E00E94FE0583EC99E058
S11307B00197F1F700C0000040E062E080E00E9491
S11307C0FE050895CF93C82F40E061E080E00E94C9
S11307D0FE05811151C040E062E00E94FE058111D6
S11307E04BC04C2F441F4427441F67E081E00E9404
S11307F0FE05811141C0C6FB442740F966E081E053
S11308000E94FE05811138C0C5FB442740F965E00C
S113081081E00E94FE0581112FC0C4FB442740F9EA
S113082064E081E00E94FE05811126C0C3FB4427D9
S113083040F963E081E00E94FE0581111DC0C2FB06
S1130840442740F962E081E00E94FE05811114C052
S1130850C1FB442740F961E081E00E94FE0581115B
S11308600BC04C2F417060E081E00E94FE058111B5
S113087003C00E94D10380E0CF910895CF93C82F85
S113088040E060E080E00E94FE05811103C08C2FEF
S11308900E94E203CF91089541E060E080E00E946D
S11308A08C05811177C041E061E00E948C058111C3
S11308B071C041E062E00E948C0581116BC041E08F
S11308C067E081E00E948C05811164C041E066E02C
S11308D081E00E948C0581115DC041E065E081E00A
S11308E00E948C05811156C041E064E081E00E94C1
S11308F08C0581114FC08DE292E20197F1F700C09F
S1130900000041E063E081E00E948C05811142C057
S113091041E062E081E00E948C0581113BC041E02E
S113092061E081E00E948C05811134C041E060E007
S113093081E00E948C0581112DC088E30E943E0451
S1130940811128C089EF90E00197F1F700C0000001
S11309508FE00E943E0481111DC089EF90E0019751
S1130960F1F700C0000081E00E943E04811112C032
S113097083EF91E00197F1F700C0000086E00E9448
S11309803E04811107C089EF90E00197F1F700C0A0
S1130990000080E00895CF93DF93603148F5C62FBF
S11309A0813089F4D0E8D60F40E060E080E00E9416
S11309B0FE05811103C08D2F0E94E20381111BC02B
S11309C0C093C60018C08230A9F4D0ECD60F40E022
S11309D060E080E00E94FE05811103C08D2F0E941B
S11309E0E203811108C060E16C0F6093C60003C08C
S11309F080E001C080E0DF91CF9108958091C6002E
S1130A00803151F460E082E00E94CB048091C60002
S1130A108F5F8093C6000895803289F440E060E0DF
S1130A2080E00E94FE05811103C081E00E94E20380
S1130A3060E081E00E94CB041092C60008958F5FAD
S1130A408093C6000895CF93C82F0E94FE0441E00E
S1130A5060E080E00E94FE05811103C08C2F0E949B
S1130A60E203CF91089540E060E080E00E94FE053B
S1130A70811103C081E00E94E2031092C600089530
S1130A80CF93DF93EC01892B39F482E008C00E94F4
S1130A902305811104C0219688818111F8CFDF914B
S1130AA0CF9108951F93CF93DF93CDB7DEB76097AF
S1130AB00FB6F894DEBF0FBECDBF9F938F938AEA23
S1130AC090E09F938F93CE0101969F938F930E9402
S1130AD096090F900F900F900F900F900F9010E0C9
S1130AE081E004C0892F0E9423051F5FE1E0F0E04C
S1130AF0EC0FFD1FE10FF11D90819111F3CF609672
S1130B000FB6F894DEBF0FBECDBFDF91CF911F911A
S1130B1008950E949602FFCF843008F067C06830C1
S1130B2008F066C0423008F065C08130E9F030F06A
S1130B30823081F1833009F443C05EC081E090E0EB
S1130B40062E02C0880F991F0A94E2F780952AB3F3
S1130B502823842F90E002C0880F991F6A95E2F73A
S1130B60822B8ABB80E0089521E030E0062E02C08B
S1130B70220F331F0A94E2F7209587B32823842F8A
S1130B8090E002C0880F991F6A95E2F7822B87BB19
S1130B9080E0089521E030E0062E02C0220F331FCA
S1130BA00A94E2F7209584B32823842F90E002C0AE
S1130BB0880F991F6A95E2F7822B84BB80E0089521
S1130BC021E030E0062E02C0220F331F0A94E2F720
S1130BD0209581B32823842F90E002C0880F991FA9
S1130BE06A95E2F7822B81BB80E0089583E0089543
S1130BF083E0089583E0089580E00895843008F048
S1130C0067C0683008F066C0423008F065C08130C3
S1130C10E9F030F0823081F1833009F443C05EC0E2
S1130C2081E090E0062E02C0880F991F0A94E2F733
S1130C3080952BB32823842F90E002C0880F991F3E
S1130C406A95E2F7822B8BBB80E0089521E030E0C7
S1130C50062E02C0220F331F0A94E2F7209588B3B0
S1130C602823842F90E002C0880F991F6A95E2F729
S1130C70822B88BB80E0089521E030E0062E02C07C
S1130C80220F331F0A94E2F7209585B32823842F7B
S1130C9090E002C0880F991F6A95E2F7822B85BB0A
S1130CA080E0089521E030E0062E02C0220F331FB9
S1130CB00A94E2F7209582B32823842F90E002C09F
S1130CC0880F991F6A95E2F7822B82BB80E0089512
S1130CD083E0089583E0089583E0089580E0089513
S1130CE041155105E1F18430E0F56830E0F58130DB
S1130CF091F028F08230D9F0833029F136C089B3DD
S1130D0090E002C0959587956A95E2F78170FA01A3
S1130D10808380E0089586B390E002C0959587951E
S1130D206A95E2F78170FA01808380E0089583B3C5
S1130D3090E002C0959587956A95E2F78170FA0173
S1130D40808380E0089580B390E002C095958795F4
S1130D506A95E2F78170FA01808380E0089582E069
S1130D60089580E0089580E0089580E00895505843
S1130D70BB27AA270E94CF060C94E7070E94D90735
S1130D8038F00E94E00720F039F49F3F19F426F46C
S1130D900C94D6070EF4E095E7FB0C94A707E92F13
S1130DA00E94F80758F3BA17620773078407950778
S1130DB020F079F4A6F50C9432080EF4E0950B2E8D
S1130DC0BA2FA02D0B01B90190010C01CA01A00199
S1130DD01124FF27591B99F0593F50F4503E68F1F4
S1130DE01A16F040A22F232F342F4427585FF3CF35
S1130DF0469537952795A795F0405395C9F77EF406
S1130E001F16BA0B620B730B840BBAF09150A1F04E
S1130E10FF0FBB1F661F771F881FC2F70EC0BA0FD4
S1130E20621F731F841F48F4879577956795B7955C
S1130E30F7959E3F08F0B0CF9395880F08F0992757
S1130E40EE0F9795879508950E94000888F09F57A4
S1130E5098F0B92F9927B751B0F0E1F0660F771FDA
S1130E60881F991F1AF0BA95C9F714C0B13091F0D0
S1130E700E943208B1E008950C943208672F782F4D
S1130E808827B85F39F0B93FCCF386957795679595
S1130E90B395D9F73EF490958095709561957F4F01
S1130EA08F4F9F4F0895E89409C097FB3EF49095A7
S1130EB08095709561957F4F8F4F9F4F9923A9F02F
S1130EC0F92F96E9BB279395F695879577956795BE
S1130ED0B795F111F8CFFAF4BB0F11F460FF1BC002
S1130EE06F5F7F4F8F4F9F4F16C0882311F096E995
S1130EF011C0772321F09EE8872F762F05C0662343
S1130F0071F096E8862F70E060E02AF09A95660FFB
S1130F10771F881FDAF7880F9695879597F90895B4
S1130F200E941A0890F09F3748F4911116F00C941F
S1130F30330860E070E080E89FEB089526F41B1608
S1130F40611D711D811D0C94AD070C94C80797F9A0
S1130F509F6780E870E060E00895882371F4772348
S1130F6021F09850872B762F07C0662311F4992718
S1130F700DC09051862B70E060E02AF09A95660FC0
S1130F80771F881FDAF7880F9695879597F9089544
S1130F909F3F31F0915020F4879577956795B795E9
S1130FA0880F911D9695879597F908959FEF80EC8A
S1130FB0089500240A9416161706180609060895BB
S1130FC000240A9412161306140605060895092E21
S1130FD00394000C11F4882352F0BB0F40F4BF2B90
S1130FE011F460FF04C06F5F7F4F8F4F9F4F0895D0
S1130FF057FD9058440F551F59F05F3F71F04795C6
S1131000880F97FB991F61F09F3F79F087950895AA
S1131010121613061406551FF2CF4695F1DF08C0C9
S1131020161617061806991FF1CF869571056105E6
S1131030089408950E940008A0F0BEE7B91788F448
S1131040BB279F3860F41616B11D672F782F8827A9
S1131050985FF7CF869577956795B11D93959639E7
S1131060C8F30895E894BB2766277727CB0197F93F
S113107008950E94490829ED3BE54EED5EE30C948A
S1131080910816F00C94C8070C94D60768940C9435
S1131090A7070E940008A8F39923C1F3AEF3DF93D6
S11310A0CF931F930F93FF92C92FDD2788232AF034
S11310B02197660F771F881FDAF720E030E040E8B9
S11310C05FEB9FE3883920F0803E38F021968F77DC
S11310D00E94B806E8ECF0E004C00E94B806E5EF10
S11310E0F0E00E94FE088B01BE01EC01FB2E6F575D
S11310F071097595771F880B990B0E94550728E194
S113110032E741E35FE30E94A408AF2D9801AE01EA
S1131110FF900F911F91CF91DF910E94CF060C9405
S1131120E7070E94A4080C94E7070E94D90738F047
S11311300E94E00720F0952311F00C94A7070C946B
S1131140D60711240C9433080E94F80770F3959F76
S1131150C1F3950F50E0551F629FF001729FBB27AA
S1131160F00DB11D639FAA27F00DB11DAA1F649F46
S11311706627B00DA11D661F829F2227B00DA11DF9
S1131180621F739FB00DA11D621F839FA00D611D7F
S1131190221F749F3327A00D611D231F849F600DA0
S11311A0211D822F762F6A2F11249F5750409AF0C9
S11311B0F1F088234AF0EE0FFF1FBB1F661F771F55
S11311C0881F91505040A9F79E3F510580F00C9420
S11311D0A7070C9433085F3FE4F3983ED4F3869555
S11311E077956795B795F795E7959F5FC1F7FE2BC0
S11311F0880F911D9695879597F90895DF93CF935E
S11312001F930F93FF92EF92DF927B018C016894FE
S113121006C0DA2EEF010E94A408FE01E894A5910D
S11312202591359145915591A6F3EF010E94CF0682
S1131230FE019701A801DA9469F7DF90EF90FF901F
S11312400F911F91CF91DF910895DB018F939F93AD
S11312500E945A09BF91AF91A29F800D911DA39F37
S1131260900DB29F900D11240895052E97FB1EF446
S113127000940E944C0957FD07D00E94650907FCA1
S113128003D04EF40C944C0950954095309521951B
S11312903F4F4F4F5F4F089590958095709561959E
S11312A07F4F8F4F9F4F0895EE0FFF1F0590F491CE
S11312B0E02D09940E948709A59F900DB49F900D7D
S11312C0A49F800D911D11240895A1E21A2EAA1B3A
S11312D0BB1BFD010DC0AA1FBB1FEE1FFF1FA217E2
S11312E0B307E407F50720F0A21BB30BE40BF50BDF
S11312F0661F771F881F991F1A9469F76095709568
S1131300809590959B01AC01BD01CF010895A29FEA
S1131310B001B39FC001A39F700D811D1124911DC5
S1131320B29F700D811D1124911D0895AEE0B0E0AF
S1131330ECE9F9E00C94570C0D891E8986E08C8346
S11313401A8309838FEF9FE79E838D83AE01475EE7
S11313505F4F6F89788DCE0101960E94B809EF81A5
S1131360F885E00FF11F10822E96E4E00C94730CC4
S1131370ABE0B0E0EEEBF9E00C94490C6C017B01BE
S11313808A01FC0117821682838181FFCCC1CE01C0
S113139001963C01F6019381F70193FD859193FF3A
S11313A081917F01882309F4BAC1853239F493FD10
S11313B0859193FF81917F01853229F4B60190E0F4
S11313C00E94AF0BE7CF912C212C312CFFE1F315B8
S11313D0D8F08B3279F038F4803279F08332A1F48A
S11313E0232D20611DC08D3261F0803369F4232DDB
S11313F0216016C0832D8260382EE32DE4603E2EDA
S11314002AC0F32DF8601DC037FC2DC020ED280F35
S11314102A3040F08E32B9F436FC81C1232D206489
S1131420322E19C036FE06C08AE0989E200D112483
S1131430922E11C0EAE02E9E200D1124222EF32DAF
S1131440F0623F2E08C08C3621F4832D8068382E3C
S113145002C0883641F4F70193FD859193FF819191
S11314607F018111B3CF982F9F7D9554933028F439
S11314700C5F1F4F9FE399830DC0833631F0833790
S113148071F0833509F059C021C0F8018081898346
S11314900E5F1F4F88248394912C530113C028019D
S11314A0F2E04F0E511CF801A080B18036FE03C05B
S11314B0692D70E002C06FEF7FEFC5010E94A40B9D
S11314C04C018201F32DFF773F2E16C0280122E044
S11314D0420E511CF801A080B18036FE03C0692D74
S11314E070E002C06FEF7FEFC5010E94990B4C01C1
S11314F0F32DF0683F2E820133FC1BC0822D90E057
S113150088169906B0F4B60180E290E00E94AF0B11
S11315102A94F4CFF50137FC859137FE81915F0160
S1131520B60190E00E94AF0B21102A9421E0821AA8
S113153091088114910471F7E8C0843611F089365A
S113154041F5F80137FE07C0608171818281938182
S11315500C5F1F4F08C060817181072E000C880B3F
S1131560990B0E5F1F4FF32DFF763F2E97FF09C097
S113157090958095709561957F4F8F4F9F4FF06840
S11315803F2E2AE030E0A3010E94EB0B882E861840
S113159045C0853731F4232D2F7EB22E2AE030E06A
S11315A025C0932D997FB92E8F36C1F018F4883554
S11315B079F0B5C0803719F0883721F0B0C0E92F31
S11315C0E061BE2EB4FE0DC0FB2DF460BF2E09C039
S11315D034FE0AC0292F2660B22E06C028E030E06F
S11315E005C020E130E002C020E132E0F801B7FE9E
S11315F007C060817181828193810C5F1F4F06C097
S11316006081718180E090E00E5F1F4FA3010E9412
S1131610EB0B882E8618FB2DFF773F2E36FE0DC070
S1131620232D2E7FA22E891458F434FE0BC032FCD5
S113163009C0832D8E7EA82E05C0B82CA32C03C010
S1131640B82C01C0B92CA4FE0FC0FE01E80DF11D99
S11316508081803321F49A2D997EA92E09C0A2FE9F
S113166006C0B394B39404C08A2D867809F0B39469
S1131670A3FC11C0A0FE06C0B21488F4280C922C5E
S11316809B180EC0B21460F4B60180E290E00E9490
S1131690AF0BB394F7CFB21418F42B1802C0982CE4
S11316A0212CA4FE10C0B60180E390E00E94AF0B91
S11316B0A2FE17C0A1FC03C088E790E002C088E541
S11316C090E0B6010CC08A2D867859F0A1FE02C0C4
S11316D08BE201C080E2A7FC8DE2B60190E00E949B
S11316E0AF0B891438F4B60180E390E00E94AF0B8D
S11316F09A94F7CF8A94F301E80DF11D8081B60125
S113170090E00E94AF0B8110F5CF222009F442CE65
S1131710B60180E290E00E94AF0B2A94F6CFF60166
S11317208681978102C08FEF9FEF2B96E2E10C94A4
S1131730650CFC010590615070400110D8F780954C
S113174090958E0F9F1F0895FC0161507040019089
S11317500110D8F7809590958E0F9F1F08950F93D1
S11317601F93CF93DF93FB01238121FD03C08FEFF0
S11317709FEF2CC022FF16C04681578124813581FA
S11317804217530744F4A081B1819D012F5F3F4F5D
S1131790318320838C93268137812F5F3F4F37839A
S11317A0268314C08B01EC01FB010084F185E02D3C
S11317B00995892BE1F6D80116968D919C9117977E
S11317C0019617969C938E931697CE01DF91CF9135
S11317D01F910F910895FA01AA27283051F1203161
S11317E081F1E8946F936E7F6E5F7F4F8F4F9F4FB1
S11317F0AF4FB1E03ED0B4E03CD0670F781F891FF3
S11318009A1FA11D680F791F8A1F911DA11D6A0FC0
S1131810711D811D911DA11D20D009F468943F9173
S11318202AE0269F11243019305D3193DEF6CF0172
S11318300895462F4770405D4193B3E00FD0C9F738
S1131840F6CF462F4F70405D4A3318F0495D31FDA5
S11318504052419302D0A9F7EACFB4E0A6959795F8
S1131860879577956795BA95C9F7009761057105CE
S113187008959B01AC010A2E069457954795379518
S11318802795BA95C9F7620F731F841F951FA01D72
S113189008952F923F924F925F926F927F928F9210
S11318A09F92AF92BF92CF92DF92EF92FF920F93EB
S11318B01F93CF93DF93CDB7DEB7CA1BDB0B0FB6F5
S11318C0F894DEBF0FBECDBF09942A8839884888B2
S11318D05F846E847D848C849B84AA84B984C88448
S11318E0DF80EE80FD800C811B81AA81B981CE0F3F
S11318F0D11D0FB6F894DEBF0FBECDBFED01089524
S1071900F894FFCF85
S11319040A0000004D415448204552524F522121AF
S1131914005365636F6E64206F706572616E64203A
S1131924300057656C636F6D65003738392F343573
S1131934362A3132332D63303D2B02020202040570
S11119440607020202020001020325640000ED
S9030000FC
